{
  "contractName": "Invoices",
  "abi": [
    {
      "inputs": [],
      "payable": false,
      "stateMutability": "nonpayable",
      "type": "constructor"
    },
    {
      "anonymous": false,
      "inputs": [
        {
          "indexed": false,
          "internalType": "uint256",
          "name": "_numberId",
          "type": "uint256"
        },
        {
          "components": [
            {
              "internalType": "string",
              "name": "_name",
              "type": "string"
            },
            {
              "internalType": "string",
              "name": "_address",
              "type": "string"
            },
            {
              "internalType": "string",
              "name": "_phone",
              "type": "string"
            },
            {
              "internalType": "string",
              "name": "_company",
              "type": "string"
            },
            {
              "internalType": "string",
              "name": "_email",
              "type": "string"
            }
          ],
          "indexed": false,
          "internalType": "struct Invoices.Person",
          "name": "_sender",
          "type": "tuple"
        },
        {
          "components": [
            {
              "internalType": "string",
              "name": "_name",
              "type": "string"
            },
            {
              "internalType": "string",
              "name": "_address",
              "type": "string"
            },
            {
              "internalType": "string",
              "name": "_phone",
              "type": "string"
            },
            {
              "internalType": "string",
              "name": "_company",
              "type": "string"
            },
            {
              "internalType": "string",
              "name": "_email",
              "type": "string"
            }
          ],
          "indexed": false,
          "internalType": "struct Invoices.Person",
          "name": "_receiver",
          "type": "tuple"
        },
        {
          "indexed": false,
          "internalType": "string",
          "name": "_discount",
          "type": "string"
        },
        {
          "indexed": false,
          "internalType": "string",
          "name": "_tax",
          "type": "string"
        },
        {
          "indexed": false,
          "internalType": "string",
          "name": "_total",
          "type": "string"
        },
        {
          "indexed": false,
          "internalType": "string",
          "name": "_details",
          "type": "string"
        },
        {
          "indexed": false,
          "internalType": "string",
          "name": "_createAt",
          "type": "string"
        },
        {
          "indexed": false,
          "internalType": "address",
          "name": "_author",
          "type": "address"
        }
      ],
      "name": "InvoiceUploaded",
      "type": "event"
    },
    {
      "constant": true,
      "inputs": [],
      "name": "invoiceCount",
      "outputs": [
        {
          "internalType": "uint256",
          "name": "",
          "type": "uint256"
        }
      ],
      "payable": false,
      "stateMutability": "view",
      "type": "function"
    },
    {
      "constant": true,
      "inputs": [
        {
          "internalType": "uint256",
          "name": "",
          "type": "uint256"
        }
      ],
      "name": "invoices",
      "outputs": [
        {
          "internalType": "uint256",
          "name": "_numberId",
          "type": "uint256"
        },
        {
          "components": [
            {
              "internalType": "string",
              "name": "_name",
              "type": "string"
            },
            {
              "internalType": "string",
              "name": "_address",
              "type": "string"
            },
            {
              "internalType": "string",
              "name": "_phone",
              "type": "string"
            },
            {
              "internalType": "string",
              "name": "_company",
              "type": "string"
            },
            {
              "internalType": "string",
              "name": "_email",
              "type": "string"
            }
          ],
          "internalType": "struct Invoices.Person",
          "name": "_sender",
          "type": "tuple"
        },
        {
          "components": [
            {
              "internalType": "string",
              "name": "_name",
              "type": "string"
            },
            {
              "internalType": "string",
              "name": "_address",
              "type": "string"
            },
            {
              "internalType": "string",
              "name": "_phone",
              "type": "string"
            },
            {
              "internalType": "string",
              "name": "_company",
              "type": "string"
            },
            {
              "internalType": "string",
              "name": "_email",
              "type": "string"
            }
          ],
          "internalType": "struct Invoices.Person",
          "name": "_receiver",
          "type": "tuple"
        },
        {
          "internalType": "string",
          "name": "_discount",
          "type": "string"
        },
        {
          "internalType": "string",
          "name": "_tax",
          "type": "string"
        },
        {
          "internalType": "string",
          "name": "_total",
          "type": "string"
        },
        {
          "internalType": "string",
          "name": "_details",
          "type": "string"
        },
        {
          "internalType": "string",
          "name": "_createAt",
          "type": "string"
        },
        {
          "internalType": "address",
          "name": "_author",
          "type": "address"
        }
      ],
      "payable": false,
      "stateMutability": "view",
      "type": "function"
    },
    {
      "constant": true,
      "inputs": [],
      "name": "name",
      "outputs": [
        {
          "internalType": "string",
          "name": "",
          "type": "string"
        }
      ],
      "payable": false,
      "stateMutability": "view",
      "type": "function"
    },
    {
      "constant": true,
      "inputs": [
        {
          "internalType": "string",
          "name": "",
          "type": "string"
        },
        {
          "internalType": "uint256",
          "name": "",
          "type": "uint256"
        }
      ],
      "name": "ownerShips",
      "outputs": [
        {
          "internalType": "uint256",
          "name": "",
          "type": "uint256"
        }
      ],
      "payable": false,
      "stateMutability": "view",
      "type": "function"
    },
    {
      "constant": false,
      "inputs": [
        {
          "internalType": "string",
          "name": "authorId",
          "type": "string"
        },
        {
          "components": [
            {
              "internalType": "string",
              "name": "_name",
              "type": "string"
            },
            {
              "internalType": "string",
              "name": "_address",
              "type": "string"
            },
            {
              "internalType": "string",
              "name": "_phone",
              "type": "string"
            },
            {
              "internalType": "string",
              "name": "_company",
              "type": "string"
            },
            {
              "internalType": "string",
              "name": "_email",
              "type": "string"
            }
          ],
          "internalType": "struct Invoices.Person",
          "name": "sender",
          "type": "tuple"
        },
        {
          "components": [
            {
              "internalType": "string",
              "name": "_name",
              "type": "string"
            },
            {
              "internalType": "string",
              "name": "_address",
              "type": "string"
            },
            {
              "internalType": "string",
              "name": "_phone",
              "type": "string"
            },
            {
              "internalType": "string",
              "name": "_company",
              "type": "string"
            },
            {
              "internalType": "string",
              "name": "_email",
              "type": "string"
            }
          ],
          "internalType": "struct Invoices.Person",
          "name": "receiver",
          "type": "tuple"
        },
        {
          "internalType": "string",
          "name": "discount",
          "type": "string"
        },
        {
          "internalType": "string",
          "name": "tax",
          "type": "string"
        },
        {
          "internalType": "string",
          "name": "total",
          "type": "string"
        },
        {
          "internalType": "string",
          "name": "details",
          "type": "string"
        },
        {
          "internalType": "string",
          "name": "createAt",
          "type": "string"
        }
      ],
      "name": "uploadInvoice",
      "outputs": [],
      "payable": false,
      "stateMutability": "nonpayable",
      "type": "function"
    },
    {
      "constant": true,
      "inputs": [
        {
          "internalType": "string",
          "name": "id",
          "type": "string"
        }
      ],
      "name": "GetInvoices",
      "outputs": [
        {
          "components": [
            {
              "internalType": "uint256",
              "name": "_numberId",
              "type": "uint256"
            },
            {
              "components": [
                {
                  "internalType": "string",
                  "name": "_name",
                  "type": "string"
                },
                {
                  "internalType": "string",
                  "name": "_address",
                  "type": "string"
                },
                {
                  "internalType": "string",
                  "name": "_phone",
                  "type": "string"
                },
                {
                  "internalType": "string",
                  "name": "_company",
                  "type": "string"
                },
                {
                  "internalType": "string",
                  "name": "_email",
                  "type": "string"
                }
              ],
              "internalType": "struct Invoices.Person",
              "name": "_sender",
              "type": "tuple"
            },
            {
              "components": [
                {
                  "internalType": "string",
                  "name": "_name",
                  "type": "string"
                },
                {
                  "internalType": "string",
                  "name": "_address",
                  "type": "string"
                },
                {
                  "internalType": "string",
                  "name": "_phone",
                  "type": "string"
                },
                {
                  "internalType": "string",
                  "name": "_company",
                  "type": "string"
                },
                {
                  "internalType": "string",
                  "name": "_email",
                  "type": "string"
                }
              ],
              "internalType": "struct Invoices.Person",
              "name": "_receiver",
              "type": "tuple"
            },
            {
              "internalType": "string",
              "name": "_discount",
              "type": "string"
            },
            {
              "internalType": "string",
              "name": "_tax",
              "type": "string"
            },
            {
              "internalType": "string",
              "name": "_total",
              "type": "string"
            },
            {
              "internalType": "string",
              "name": "_details",
              "type": "string"
            },
            {
              "internalType": "string",
              "name": "_createAt",
              "type": "string"
            },
            {
              "internalType": "address",
              "name": "_author",
              "type": "address"
            }
          ],
          "internalType": "struct Invoices.Invoice[]",
          "name": "",
          "type": "tuple[]"
        }
      ],
      "payable": false,
      "stateMutability": "view",
      "type": "function"
    }
  ],
  "bytecode": "0x6080604052600080556040518060400160405280600881526020017f496e766f6963657300000000000000000000000000000000000000000000000081525060019080519060200190620000559291906200006a565b503480156200006357600080fd5b5062000119565b828054600181600116156101000203166002900490600052602060002090601f016020900481019282601f10620000ad57805160ff1916838001178555620000de565b82800160010185558215620000de579182015b82811115620000dd578251825591602001919060010190620000c0565b5b509050620000ed9190620000f1565b5090565b6200011691905b8082111562000112576000816000905550600101620000f8565b5090565b90565b61290280620001296000396000f3fe608060405234801561001057600080fd5b50600436106100625760003560e01c806306fdde03146100675780631346f0c41461008557806331b284e0146100a35780634e6d1405146100bf578063c499c80b146100f7578063d6db3d5314610127575b600080fd5b61006f610157565b60405161007c9190612529565b60405180910390f35b61008d6101f5565b60405161009a919061254b565b60405180910390f35b6100bd60048036036100b89190810190611eac565b6101fb565b005b6100d960048036036100d49190810190612072565b6105e5565b6040516100ee99989796959493929190612624565b60405180910390f35b610111600480360361010c9190810190611e6b565b610fb3565b60405161011e9190612507565b60405180910390f35b610141600480360361013c919081019061201e565b611aaf565b60405161014e919061254b565b60405180910390f35b60018054600181600116156101000203166002900480601f0160208091040260200160405190810160405280929190818152602001828054600181600116156101000203166002900480156101ed5780601f106101c2576101008083540402835291602001916101ed565b820191906000526020600020905b8154815290600101906020018083116101d057829003601f168201915b505050505081565b60005481565b61020487611af3565b61020d57600080fd5b61021686611af3565b61021f57600080fd5b600085511161022d57600080fd5b600084511161023b57600080fd5b600083511161024957600080fd5b600082511161025757600080fd5b600088511161026557600080fd5b600081511161027357600080fd5b600073ffffffffffffffffffffffffffffffffffffffff163373ffffffffffffffffffffffffffffffffffffffff1614156102ad57600080fd5b600080815480929190600101919050555060405180610120016040528060005481526020018881526020018781526020018681526020018581526020018481526020018381526020018281526020013373ffffffffffffffffffffffffffffffffffffffff168152506002600080548152602001908152602001600020600082015181600001556020820151816001016000820151816000019080519060200190610359929190611b6c565b506020820151816001019080519060200190610376929190611b6c565b506040820151816002019080519060200190610393929190611b6c565b5060608201518160030190805190602001906103b0929190611b6c565b5060808201518160040190805190602001906103cd929190611b6c565b50505060408201518160060160008201518160000190805190602001906103f5929190611b6c565b506020820151816001019080519060200190610412929190611b6c565b50604082015181600201908051906020019061042f929190611b6c565b50606082015181600301908051906020019061044c929190611b6c565b506080820151816004019080519060200190610469929190611b6c565b505050606082015181600b019080519060200190610488929190611b6c565b50608082015181600c0190805190602001906104a5929190611b6c565b5060a082015181600d0190805190602001906104c2929190611b6c565b5060c082015181600e0190805190602001906104df929190611b6c565b5060e082015181600f0190805190602001906104fc929190611b6c565b506101008201518160100160006101000a81548173ffffffffffffffffffffffffffffffffffffffff021916908373ffffffffffffffffffffffffffffffffffffffff16021790555090505060038860405161055891906124f0565b908152602001604051809103902060005490806001815401808255809150509060018203906000526020600020016000909192909190915055507fa8b15935b7ed4c62b5d35670508c7f588b80e2d58da847ea087709759178d78360005488888888888888336040516105d399989796959493929190612566565b60405180910390a15050505050505050565b6002602052806000526040600020600091509050806000015490806001016040518060a0016040529081600082018054600181600116156101000203166002900480601f0160208091040260200160405190810160405280929190818152602001828054600181600116156101000203166002900480156106a75780601f1061067c576101008083540402835291602001916106a7565b820191906000526020600020905b81548152906001019060200180831161068a57829003601f168201915b50505050508152602001600182018054600181600116156101000203166002900480601f0160208091040260200160405190810160405280929190818152602001828054600181600116156101000203166002900480156107495780601f1061071e57610100808354040283529160200191610749565b820191906000526020600020905b81548152906001019060200180831161072c57829003601f168201915b50505050508152602001600282018054600181600116156101000203166002900480601f0160208091040260200160405190810160405280929190818152602001828054600181600116156101000203166002900480156107eb5780601f106107c0576101008083540402835291602001916107eb565b820191906000526020600020905b8154815290600101906020018083116107ce57829003601f168201915b50505050508152602001600382018054600181600116156101000203166002900480601f01602080910402602001604051908101604052809291908181526020018280546001816001161561010002031660029004801561088d5780601f106108625761010080835404028352916020019161088d565b820191906000526020600020905b81548152906001019060200180831161087057829003601f168201915b50505050508152602001600482018054600181600116156101000203166002900480601f01602080910402602001604051908101604052809291908181526020018280546001816001161561010002031660029004801561092f5780601f106109045761010080835404028352916020019161092f565b820191906000526020600020905b81548152906001019060200180831161091257829003601f168201915b50505050508152505090806006016040518060a0016040529081600082018054600181600116156101000203166002900480601f0160208091040260200160405190810160405280929190818152602001828054600181600116156101000203166002900480156109e15780601f106109b6576101008083540402835291602001916109e1565b820191906000526020600020905b8154815290600101906020018083116109c457829003601f168201915b50505050508152602001600182018054600181600116156101000203166002900480601f016020809104026020016040519081016040528092919081815260200182805460018160011615610100020316600290048015610a835780601f10610a5857610100808354040283529160200191610a83565b820191906000526020600020905b815481529060010190602001808311610a6657829003601f168201915b50505050508152602001600282018054600181600116156101000203166002900480601f016020809104026020016040519081016040528092919081815260200182805460018160011615610100020316600290048015610b255780601f10610afa57610100808354040283529160200191610b25565b820191906000526020600020905b815481529060010190602001808311610b0857829003601f168201915b50505050508152602001600382018054600181600116156101000203166002900480601f016020809104026020016040519081016040528092919081815260200182805460018160011615610100020316600290048015610bc75780601f10610b9c57610100808354040283529160200191610bc7565b820191906000526020600020905b815481529060010190602001808311610baa57829003601f168201915b50505050508152602001600482018054600181600116156101000203166002900480601f016020809104026020016040519081016040528092919081815260200182805460018160011615610100020316600290048015610c695780601f10610c3e57610100808354040283529160200191610c69565b820191906000526020600020905b815481529060010190602001808311610c4c57829003601f168201915b5050505050815250509080600b018054600181600116156101000203166002900480601f016020809104026020016040519081016040528092919081815260200182805460018160011615610100020316600290048015610d0b5780601f10610ce057610100808354040283529160200191610d0b565b820191906000526020600020905b815481529060010190602001808311610cee57829003601f168201915b50505050509080600c018054600181600116156101000203166002900480601f016020809104026020016040519081016040528092919081815260200182805460018160011615610100020316600290048015610da95780601f10610d7e57610100808354040283529160200191610da9565b820191906000526020600020905b815481529060010190602001808311610d8c57829003601f168201915b50505050509080600d018054600181600116156101000203166002900480601f016020809104026020016040519081016040528092919081815260200182805460018160011615610100020316600290048015610e475780601f10610e1c57610100808354040283529160200191610e47565b820191906000526020600020905b815481529060010190602001808311610e2a57829003601f168201915b50505050509080600e018054600181600116156101000203166002900480601f016020809104026020016040519081016040528092919081815260200182805460018160011615610100020316600290048015610ee55780601f10610eba57610100808354040283529160200191610ee5565b820191906000526020600020905b815481529060010190602001808311610ec857829003601f168201915b50505050509080600f018054600181600116156101000203166002900480601f016020809104026020016040519081016040528092919081815260200182805460018160011615610100020316600290048015610f835780601f10610f5857610100808354040283529160200191610f83565b820191906000526020600020905b815481529060010190602001808311610f6657829003601f168201915b5050505050908060100160009054906101000a900473ffffffffffffffffffffffffffffffffffffffff16905089565b60606000600383604051610fc791906124f0565b908152602001604051809103902080549050905060608160405190808252806020026020018201604052801561101757816020015b611004611bec565b815260200190600190039081610ffc5790505b50905060008090505b82811015611aa4576002600060038760405161103c91906124f0565b9081526020016040518091039020838154811061105557fe5b906000526020600020015481526020019081526020016000206040518061012001604052908160008201548152602001600182016040518060a0016040529081600082018054600181600116156101000203166002900480601f01602080910402602001604051908101604052809291908181526020018280546001816001161561010002031660029004801561112d5780601f106111025761010080835404028352916020019161112d565b820191906000526020600020905b81548152906001019060200180831161111057829003601f168201915b50505050508152602001600182018054600181600116156101000203166002900480601f0160208091040260200160405190810160405280929190818152602001828054600181600116156101000203166002900480156111cf5780601f106111a4576101008083540402835291602001916111cf565b820191906000526020600020905b8154815290600101906020018083116111b257829003601f168201915b50505050508152602001600282018054600181600116156101000203166002900480601f0160208091040260200160405190810160405280929190818152602001828054600181600116156101000203166002900480156112715780601f1061124657610100808354040283529160200191611271565b820191906000526020600020905b81548152906001019060200180831161125457829003601f168201915b50505050508152602001600382018054600181600116156101000203166002900480601f0160208091040260200160405190810160405280929190818152602001828054600181600116156101000203166002900480156113135780601f106112e857610100808354040283529160200191611313565b820191906000526020600020905b8154815290600101906020018083116112f657829003601f168201915b50505050508152602001600482018054600181600116156101000203166002900480601f0160208091040260200160405190810160405280929190818152602001828054600181600116156101000203166002900480156113b55780601f1061138a576101008083540402835291602001916113b5565b820191906000526020600020905b81548152906001019060200180831161139857829003601f168201915b5050505050815250508152602001600682016040518060a0016040529081600082018054600181600116156101000203166002900480601f01602080910402602001604051908101604052809291908181526020018280546001816001161561010002031660029004801561146b5780601f106114405761010080835404028352916020019161146b565b820191906000526020600020905b81548152906001019060200180831161144e57829003601f168201915b50505050508152602001600182018054600181600116156101000203166002900480601f01602080910402602001604051908101604052809291908181526020018280546001816001161561010002031660029004801561150d5780601f106114e25761010080835404028352916020019161150d565b820191906000526020600020905b8154815290600101906020018083116114f057829003601f168201915b50505050508152602001600282018054600181600116156101000203166002900480601f0160208091040260200160405190810160405280929190818152602001828054600181600116156101000203166002900480156115af5780601f10611584576101008083540402835291602001916115af565b820191906000526020600020905b81548152906001019060200180831161159257829003601f168201915b50505050508152602001600382018054600181600116156101000203166002900480601f0160208091040260200160405190810160405280929190818152602001828054600181600116156101000203166002900480156116515780601f1061162657610100808354040283529160200191611651565b820191906000526020600020905b81548152906001019060200180831161163457829003601f168201915b50505050508152602001600482018054600181600116156101000203166002900480601f0160208091040260200160405190810160405280929190818152602001828054600181600116156101000203166002900480156116f35780601f106116c8576101008083540402835291602001916116f3565b820191906000526020600020905b8154815290600101906020018083116116d657829003601f168201915b5050505050815250508152602001600b82018054600181600116156101000203166002900480601f0160208091040260200160405190810160405280929190818152602001828054600181600116156101000203166002900480156117995780601f1061176e57610100808354040283529160200191611799565b820191906000526020600020905b81548152906001019060200180831161177c57829003601f168201915b50505050508152602001600c82018054600181600116156101000203166002900480601f01602080910402602001604051908101604052809291908181526020018280546001816001161561010002031660029004801561183b5780601f106118105761010080835404028352916020019161183b565b820191906000526020600020905b81548152906001019060200180831161181e57829003601f168201915b50505050508152602001600d82018054600181600116156101000203166002900480601f0160208091040260200160405190810160405280929190818152602001828054600181600116156101000203166002900480156118dd5780601f106118b2576101008083540402835291602001916118dd565b820191906000526020600020905b8154815290600101906020018083116118c057829003601f168201915b50505050508152602001600e82018054600181600116156101000203166002900480601f01602080910402602001604051908101604052809291908181526020018280546001816001161561010002031660029004801561197f5780601f106119545761010080835404028352916020019161197f565b820191906000526020600020905b81548152906001019060200180831161196257829003601f168201915b50505050508152602001600f82018054600181600116156101000203166002900480601f016020809104026020016040519081016040528092919081815260200182805460018160011615610100020316600290048015611a215780601f106119f657610100808354040283529160200191611a21565b820191906000526020600020905b815481529060010190602001808311611a0457829003601f168201915b505050505081526020016010820160009054906101000a900473ffffffffffffffffffffffffffffffffffffffff1673ffffffffffffffffffffffffffffffffffffffff1673ffffffffffffffffffffffffffffffffffffffff1681525050828281518110611a8c57fe5b60200260200101819052508080600101915050611020565b508092505050919050565b6003828051602081018201805184825260208301602085012081835280955050505050508181548110611ade57fe5b90600052602060002001600091509150505481565b60008082602001515111611b0a5760009050611b67565b600082606001515111611b205760009050611b67565b600082608001515111611b365760009050611b67565b600082600001515111611b4c5760009050611b67565b600082604001515111611b625760009050611b67565b600190505b919050565b828054600181600116156101000203166002900490600052602060002090601f016020900481019282601f10611bad57805160ff1916838001178555611bdb565b82800160010185558215611bdb579182015b82811115611bda578251825591602001919060010190611bbf565b5b509050611be89190611c5a565b5090565b60405180610120016040528060008152602001611c07611c7f565b8152602001611c14611c7f565b81526020016060815260200160608152602001606081526020016060815260200160608152602001600073ffffffffffffffffffffffffffffffffffffffff1681525090565b611c7c91905b80821115611c78576000816000905550600101611c60565b5090565b90565b6040518060a0016040528060608152602001606081526020016060815260200160608152602001606081525090565b600082601f830112611cbf57600080fd5b8135611cd2611ccd8261270f565b6126e2565b91508082526020830160208301858383011115611cee57600080fd5b611cf9838284612855565b50505092915050565b600082601f830112611d1357600080fd5b8135611d26611d218261273b565b6126e2565b91508082526020830160208301858383011115611d4257600080fd5b611d4d838284612855565b50505092915050565b600060a08284031215611d6857600080fd5b611d7260a06126e2565b9050600082013567ffffffffffffffff811115611d8e57600080fd5b611d9a84828501611cae565b600083015250602082013567ffffffffffffffff811115611dba57600080fd5b611dc684828501611cae565b602083015250604082013567ffffffffffffffff811115611de657600080fd5b611df284828501611cae565b604083015250606082013567ffffffffffffffff811115611e1257600080fd5b611e1e84828501611cae565b606083015250608082013567ffffffffffffffff811115611e3e57600080fd5b611e4a84828501611cae565b60808301525092915050565b600081359050611e65816128a8565b92915050565b600060208284031215611e7d57600080fd5b600082013567ffffffffffffffff811115611e9757600080fd5b611ea384828501611d02565b91505092915050565b600080600080600080600080610100898b031215611ec957600080fd5b600089013567ffffffffffffffff811115611ee357600080fd5b611eef8b828c01611d02565b985050602089013567ffffffffffffffff811115611f0c57600080fd5b611f188b828c01611d56565b975050604089013567ffffffffffffffff811115611f3557600080fd5b611f418b828c01611d56565b965050606089013567ffffffffffffffff811115611f5e57600080fd5b611f6a8b828c01611d02565b955050608089013567ffffffffffffffff811115611f8757600080fd5b611f938b828c01611d02565b94505060a089013567ffffffffffffffff811115611fb057600080fd5b611fbc8b828c01611d02565b93505060c089013567ffffffffffffffff811115611fd957600080fd5b611fe58b828c01611d02565b92505060e089013567ffffffffffffffff81111561200257600080fd5b61200e8b828c01611d02565b9150509295985092959890939650565b6000806040838503121561203157600080fd5b600083013567ffffffffffffffff81111561204b57600080fd5b61205785828601611cae565b925050602061206885828601611e56565b9150509250929050565b60006020828403121561208457600080fd5b600061209284828501611e56565b91505092915050565b60006120a7838361222d565b905092915050565b6120b88161281f565b82525050565b6120c7816127e3565b82525050565b6120d6816127e3565b82525050565b60006120e782612777565b6120f181856127a5565b93508360208202850161210385612767565b8060005b8581101561213f5784840389528151612120858261209b565b945061212b83612798565b925060208a01995050600181019050612107565b50829750879550505050505092915050565b600061215c8261278d565b61216681856127c7565b9350612176818560208601612864565b61217f81612897565b840191505092915050565b60006121958261278d565b61219f81856127d8565b93506121af818560208601612864565b80840191505092915050565b60006121c682612782565b6121d081856127b6565b93506121e0818560208601612864565b6121e981612897565b840191505092915050565b60006121ff82612782565b61220981856127c7565b9350612219818560208601612864565b61222281612897565b840191505092915050565b60006101208301600083015161224660008601826124d2565b506020830151848203602086015261225e82826123ae565b9150506040830151848203604086015261227882826123ae565b9150506060830151848203606086015261229282826121bb565b915050608083015184820360808601526122ac82826121bb565b91505060a083015184820360a08601526122c682826121bb565b91505060c083015184820360c08601526122e082826121bb565b91505060e083015184820360e08601526122fa82826121bb565b9150506101008301516123116101008601826120be565b508091505092915050565b600060a083016000830151848203600086015261233982826121bb565b9150506020830151848203602086015261235382826121bb565b9150506040830151848203604086015261236d82826121bb565b9150506060830151848203606086015261238782826121bb565b915050608083015184820360808601526123a182826121bb565b9150508091505092915050565b600060a08301600083015184820360008601526123cb82826121bb565b915050602083015184820360208601526123e582826121bb565b915050604083015184820360408601526123ff82826121bb565b9150506060830151848203606086015261241982826121bb565b9150506080830151848203608086015261243382826121bb565b9150508091505092915050565b600060a083016000830151848203600086015261245d82826121bb565b9150506020830151848203602086015261247782826121bb565b9150506040830151848203604086015261249182826121bb565b915050606083015184820360608601526124ab82826121bb565b915050608083015184820360808601526124c582826121bb565b9150508091505092915050565b6124db81612815565b82525050565b6124ea81612815565b82525050565b60006124fc828461218a565b915081905092915050565b6000602082019050818103600083015261252181846120dc565b905092915050565b6000602082019050818103600083015261254381846121f4565b905092915050565b600060208201905061256060008301846124e1565b92915050565b60006101208201905061257c600083018c6124e1565b818103602083015261258e818b61231c565b905081810360408301526125a2818a61231c565b905081810360608301526125b68189612151565b905081810360808301526125ca8188612151565b905081810360a08301526125de8187612151565b905081810360c08301526125f28186612151565b905081810360e08301526126068185612151565b90506126166101008301846120af565b9a9950505050505050505050565b60006101208201905061263a600083018c6124e1565b818103602083015261264c818b612440565b90508181036040830152612660818a612440565b9050818103606083015261267481896121f4565b9050818103608083015261268881886121f4565b905081810360a083015261269c81876121f4565b905081810360c08301526126b081866121f4565b905081810360e08301526126c481856121f4565b90506126d46101008301846120cd565b9a9950505050505050505050565b6000604051905081810181811067ffffffffffffffff8211171561270557600080fd5b8060405250919050565b600067ffffffffffffffff82111561272657600080fd5b601f19601f8301169050602081019050919050565b600067ffffffffffffffff82111561275257600080fd5b601f19601f8301169050602081019050919050565b6000819050602082019050919050565b600081519050919050565b600081519050919050565b600081519050919050565b6000602082019050919050565b600082825260208201905092915050565b600082825260208201905092915050565b600082825260208201905092915050565b600081905092915050565b60006127ee826127f5565b9050919050565b600073ffffffffffffffffffffffffffffffffffffffff82169050919050565b6000819050919050565b600061282a82612831565b9050919050565b600061283c82612843565b9050919050565b600061284e826127f5565b9050919050565b82818337600083830152505050565b60005b83811015612882578082015181840152602081019050612867565b83811115612891576000848401525b50505050565b6000601f19601f8301169050919050565b6128b181612815565b81146128bc57600080fd5b5056fea365627a7a7231582079bb454a0603f124fce078d569f233bbfce970782f7c7aadac5e569a2a3c60e96c6578706572696d656e74616cf564736f6c63430005100040",
  "source": "pragma experimental ABIEncoderV2;\r\n// pragma solidity >=0.4.22 <0.9.0;\r\npragma solidity ^0.5.16;\r\n\r\ncontract Invoices {\r\n  uint public invoiceCount = 0;\r\n  string public name = \"Invoices\";\r\n  //Create id=>struct mapping\r\n  // mapping(uint => Invoice) public invoices;\r\n  mapping(uint => Invoice) public invoices;\r\n\r\n  mapping(string => uint[]) public ownerShips;\r\n\r\n\r\n  //Create Struct\r\n  struct Invoice {\r\n    uint _numberId;\r\n    Person _sender;\r\n    Person _receiver;\r\n    string _discount;\r\n    string _tax;\r\n    string _total;\r\n    string _details;\r\n    string _createAt;\r\n    address _author;\r\n  }\r\n\r\n  struct Person {\r\n    string _name;\r\n    string _address;\r\n    string _phone;\r\n    string _company;\r\n    string _email;\r\n  }\r\n\r\n  //Create Event\r\n  event InvoiceUploaded (\r\n    uint _numberId,\r\n    Person _sender,\r\n    Person _receiver,\r\n    string _discount,    \r\n    string _tax,\r\n    string _total,\r\n    string _details,\r\n    string _createAt,\r\n    address _author\r\n  );\r\n\r\n  constructor() public {\r\n  }\r\n\r\n  function CheckPerson(Person memory person) private pure returns(bool){\r\n    if (bytes(person._address).length <= 0)\r\n        return false;\r\n    if (bytes(person._company).length <= 0)\r\n        return false;\r\n    if (bytes(person._email).length <= 0)\r\n        return false;\r\n    if (bytes(person._name).length <= 0)\r\n        return false;\r\n    if (bytes(person._phone).length <= 0)\r\n        return false;\r\n    return true;\r\n  }\r\n\r\n  function uploadInvoice(string memory authorId, Person memory sender, Person memory receiver, string memory discount,\r\n    string memory tax,\r\n    string memory total,\r\n    string memory details, string memory createAt) public {\r\n    // Make sure the sender exists\r\n    require(CheckPerson(sender));\r\n    // Make sure receiver exists\r\n    require(CheckPerson(receiver));\r\n    require(bytes(discount).length > 0);\r\n    require(bytes(tax).length > 0);\r\n    require(bytes(total).length > 0);\r\n    // require(CheckDetailList(details));\r\n    require(bytes(details).length > 0);\r\n\r\n    require(bytes(authorId).length > 0);\r\n\r\n    require(bytes(createAt).length > 0);\r\n\r\n    // Make sure uploader address exists\r\n    require(msg.sender != address(0));\r\n\r\n    // Increment invoice id\r\n    invoiceCount++;\r\n\r\n    // Add invoice to the contract\r\n    invoices[invoiceCount] = Invoice(invoiceCount,\r\n     sender,\r\n     receiver,\r\n     discount,\r\n     tax,\r\n     total,\r\n     details, createAt, msg.sender);\r\n\r\n     ownerShips[authorId].push(invoiceCount);\r\n    // invoices[invoiceCount] = temp;\r\n\r\n    // Trigger an event\r\n    emit InvoiceUploaded(invoiceCount,\r\n     sender,\r\n     receiver,\r\n     discount,\r\n     tax,\r\n     total,\r\n     details,\r\n     createAt, \r\n     msg.sender);\r\n  }\r\n\r\n  function GetInvoices(string memory id) public view returns(Invoice[] memory) {\r\n    uint size = ownerShips[id].length;\r\n    Invoice[] memory result = new Invoice[](size);\r\n    for(uint i = 0; i< size; i++)\r\n      result[i] = invoices[ownerShips[id][i]];\r\n    return result;\r\n  }\r\n}",
  "sourcePath": "E:/Code/Blockchain/InvoiceStorageSystem/invoices-storage-system/src/contracts/Invoices.sol",
  "compiler": {
    "name": "solc",
    "version": "0.5.16+commit.9c3226ce.Emscripten.clang"
  },
  "schemaVersion": "3.3.4",
  "updatedAt": "2021-06-25T05:00:30.308Z",
  "networkType": "ethereum",
  "devdoc": {
    "methods": {}
  },
  "userdoc": {
    "methods": {}
  }
}