{
  "contractName": "Invoices",
  "abi": [
    {
      "inputs": [],
      "payable": false,
      "stateMutability": "nonpayable",
      "type": "constructor"
    },
    {
      "anonymous": false,
      "inputs": [
        {
          "indexed": false,
          "internalType": "uint256",
          "name": "_numberId",
          "type": "uint256"
        },
        {
          "components": [
            {
              "internalType": "string",
              "name": "_name",
              "type": "string"
            },
            {
              "internalType": "string",
              "name": "_address",
              "type": "string"
            },
            {
              "internalType": "string",
              "name": "_phone",
              "type": "string"
            },
            {
              "internalType": "string",
              "name": "_company",
              "type": "string"
            },
            {
              "internalType": "string",
              "name": "_email",
              "type": "string"
            }
          ],
          "indexed": false,
          "internalType": "struct Invoices.Person",
          "name": "_sender",
          "type": "tuple"
        },
        {
          "components": [
            {
              "internalType": "string",
              "name": "_name",
              "type": "string"
            },
            {
              "internalType": "string",
              "name": "_address",
              "type": "string"
            },
            {
              "internalType": "string",
              "name": "_phone",
              "type": "string"
            },
            {
              "internalType": "string",
              "name": "_company",
              "type": "string"
            },
            {
              "internalType": "string",
              "name": "_email",
              "type": "string"
            }
          ],
          "indexed": false,
          "internalType": "struct Invoices.Person",
          "name": "_receiver",
          "type": "tuple"
        },
        {
          "indexed": false,
          "internalType": "string",
          "name": "_discount",
          "type": "string"
        },
        {
          "indexed": false,
          "internalType": "string",
          "name": "_tax",
          "type": "string"
        },
        {
          "indexed": false,
          "internalType": "string",
          "name": "_total",
          "type": "string"
        },
        {
          "indexed": false,
          "internalType": "string",
          "name": "_details",
          "type": "string"
        },
        {
          "indexed": false,
          "internalType": "address",
          "name": "_author",
          "type": "address"
        }
      ],
      "name": "InvoiceUploaded",
      "type": "event"
    },
    {
      "constant": true,
      "inputs": [],
      "name": "invoiceCount",
      "outputs": [
        {
          "internalType": "uint256",
          "name": "",
          "type": "uint256"
        }
      ],
      "payable": false,
      "stateMutability": "view",
      "type": "function"
    },
    {
      "constant": true,
      "inputs": [
        {
          "internalType": "uint256",
          "name": "",
          "type": "uint256"
        }
      ],
      "name": "invoices",
      "outputs": [
        {
          "internalType": "uint256",
          "name": "_numberId",
          "type": "uint256"
        },
        {
          "components": [
            {
              "internalType": "string",
              "name": "_name",
              "type": "string"
            },
            {
              "internalType": "string",
              "name": "_address",
              "type": "string"
            },
            {
              "internalType": "string",
              "name": "_phone",
              "type": "string"
            },
            {
              "internalType": "string",
              "name": "_company",
              "type": "string"
            },
            {
              "internalType": "string",
              "name": "_email",
              "type": "string"
            }
          ],
          "internalType": "struct Invoices.Person",
          "name": "_sender",
          "type": "tuple"
        },
        {
          "components": [
            {
              "internalType": "string",
              "name": "_name",
              "type": "string"
            },
            {
              "internalType": "string",
              "name": "_address",
              "type": "string"
            },
            {
              "internalType": "string",
              "name": "_phone",
              "type": "string"
            },
            {
              "internalType": "string",
              "name": "_company",
              "type": "string"
            },
            {
              "internalType": "string",
              "name": "_email",
              "type": "string"
            }
          ],
          "internalType": "struct Invoices.Person",
          "name": "_receiver",
          "type": "tuple"
        },
        {
          "internalType": "string",
          "name": "_discount",
          "type": "string"
        },
        {
          "internalType": "string",
          "name": "_tax",
          "type": "string"
        },
        {
          "internalType": "string",
          "name": "_total",
          "type": "string"
        },
        {
          "internalType": "string",
          "name": "_details",
          "type": "string"
        },
        {
          "internalType": "address",
          "name": "_author",
          "type": "address"
        }
      ],
      "payable": false,
      "stateMutability": "view",
      "type": "function"
    },
    {
      "constant": true,
      "inputs": [],
      "name": "name",
      "outputs": [
        {
          "internalType": "string",
          "name": "",
          "type": "string"
        }
      ],
      "payable": false,
      "stateMutability": "view",
      "type": "function"
    },
    {
      "constant": false,
      "inputs": [
        {
          "components": [
            {
              "internalType": "string",
              "name": "_name",
              "type": "string"
            },
            {
              "internalType": "string",
              "name": "_address",
              "type": "string"
            },
            {
              "internalType": "string",
              "name": "_phone",
              "type": "string"
            },
            {
              "internalType": "string",
              "name": "_company",
              "type": "string"
            },
            {
              "internalType": "string",
              "name": "_email",
              "type": "string"
            }
          ],
          "internalType": "struct Invoices.Person",
          "name": "sender",
          "type": "tuple"
        },
        {
          "components": [
            {
              "internalType": "string",
              "name": "_name",
              "type": "string"
            },
            {
              "internalType": "string",
              "name": "_address",
              "type": "string"
            },
            {
              "internalType": "string",
              "name": "_phone",
              "type": "string"
            },
            {
              "internalType": "string",
              "name": "_company",
              "type": "string"
            },
            {
              "internalType": "string",
              "name": "_email",
              "type": "string"
            }
          ],
          "internalType": "struct Invoices.Person",
          "name": "receiver",
          "type": "tuple"
        },
        {
          "internalType": "string",
          "name": "discount",
          "type": "string"
        },
        {
          "internalType": "string",
          "name": "tax",
          "type": "string"
        },
        {
          "internalType": "string",
          "name": "total",
          "type": "string"
        },
        {
          "internalType": "string",
          "name": "details",
          "type": "string"
        }
      ],
      "name": "uploadInvoice",
      "outputs": [],
      "payable": false,
      "stateMutability": "nonpayable",
      "type": "function"
    }
  ],
  "bytecode": "0x6080604052600080556040518060400160405280600881526020017f496e766f6963657300000000000000000000000000000000000000000000000081525060019080519060200190620000559291906200006a565b503480156200006357600080fd5b5062000119565b828054600181600116156101000203166002900490600052602060002090601f016020900481019282601f10620000ad57805160ff1916838001178555620000de565b82800160010185558215620000de579182015b82811115620000dd578251825591602001919060010190620000c0565b5b509050620000ed9190620000f1565b5090565b6200011691905b8082111562000112576000816000905550600101620000f8565b5090565b90565b61179280620001296000396000f3fe608060405234801561001057600080fd5b506004361061004c5760003560e01c806306fdde03146100515780631346f0c41461006f5780634e6d14051461008d578063c0e02139146100c4575b600080fd5b6100596100e0565b6040516100669190611429565b60405180910390f35b61007761017e565b604051610084919061144b565b60405180910390f35b6100a760048036036100a29190810190611204565b610184565b6040516100bb98979695949392919061150e565b60405180910390f35b6100de60048036036100d991908101906110eb565b610ab4565b005b60018054600181600116156101000203166002900480601f0160208091040260200160405190810160405280929190818152602001828054600181600116156101000203166002900480156101765780601f1061014b57610100808354040283529160200191610176565b820191906000526020600020905b81548152906001019060200180831161015957829003601f168201915b505050505081565b60005481565b6002602052806000526040600020600091509050806000015490806001016040518060a0016040529081600082018054600181600116156101000203166002900480601f0160208091040260200160405190810160405280929190818152602001828054600181600116156101000203166002900480156102465780601f1061021b57610100808354040283529160200191610246565b820191906000526020600020905b81548152906001019060200180831161022957829003601f168201915b50505050508152602001600182018054600181600116156101000203166002900480601f0160208091040260200160405190810160405280929190818152602001828054600181600116156101000203166002900480156102e85780601f106102bd576101008083540402835291602001916102e8565b820191906000526020600020905b8154815290600101906020018083116102cb57829003601f168201915b50505050508152602001600282018054600181600116156101000203166002900480601f01602080910402602001604051908101604052809291908181526020018280546001816001161561010002031660029004801561038a5780601f1061035f5761010080835404028352916020019161038a565b820191906000526020600020905b81548152906001019060200180831161036d57829003601f168201915b50505050508152602001600382018054600181600116156101000203166002900480601f01602080910402602001604051908101604052809291908181526020018280546001816001161561010002031660029004801561042c5780601f106104015761010080835404028352916020019161042c565b820191906000526020600020905b81548152906001019060200180831161040f57829003601f168201915b50505050508152602001600482018054600181600116156101000203166002900480601f0160208091040260200160405190810160405280929190818152602001828054600181600116156101000203166002900480156104ce5780601f106104a3576101008083540402835291602001916104ce565b820191906000526020600020905b8154815290600101906020018083116104b157829003601f168201915b50505050508152505090806006016040518060a0016040529081600082018054600181600116156101000203166002900480601f0160208091040260200160405190810160405280929190818152602001828054600181600116156101000203166002900480156105805780601f1061055557610100808354040283529160200191610580565b820191906000526020600020905b81548152906001019060200180831161056357829003601f168201915b50505050508152602001600182018054600181600116156101000203166002900480601f0160208091040260200160405190810160405280929190818152602001828054600181600116156101000203166002900480156106225780601f106105f757610100808354040283529160200191610622565b820191906000526020600020905b81548152906001019060200180831161060557829003601f168201915b50505050508152602001600282018054600181600116156101000203166002900480601f0160208091040260200160405190810160405280929190818152602001828054600181600116156101000203166002900480156106c45780601f10610699576101008083540402835291602001916106c4565b820191906000526020600020905b8154815290600101906020018083116106a757829003601f168201915b50505050508152602001600382018054600181600116156101000203166002900480601f0160208091040260200160405190810160405280929190818152602001828054600181600116156101000203166002900480156107665780601f1061073b57610100808354040283529160200191610766565b820191906000526020600020905b81548152906001019060200180831161074957829003601f168201915b50505050508152602001600482018054600181600116156101000203166002900480601f0160208091040260200160405190810160405280929190818152602001828054600181600116156101000203166002900480156108085780601f106107dd57610100808354040283529160200191610808565b820191906000526020600020905b8154815290600101906020018083116107eb57829003601f168201915b5050505050815250509080600b018054600181600116156101000203166002900480601f0160208091040260200160405190810160405280929190818152602001828054600181600116156101000203166002900480156108aa5780601f1061087f576101008083540402835291602001916108aa565b820191906000526020600020905b81548152906001019060200180831161088d57829003601f168201915b50505050509080600c018054600181600116156101000203166002900480601f0160208091040260200160405190810160405280929190818152602001828054600181600116156101000203166002900480156109485780601f1061091d57610100808354040283529160200191610948565b820191906000526020600020905b81548152906001019060200180831161092b57829003601f168201915b50505050509080600d018054600181600116156101000203166002900480601f0160208091040260200160405190810160405280929190818152602001828054600181600116156101000203166002900480156109e65780601f106109bb576101008083540402835291602001916109e6565b820191906000526020600020905b8154815290600101906020018083116109c957829003601f168201915b50505050509080600e018054600181600116156101000203166002900480601f016020809104026020016040519081016040528092919081815260200182805460018160011615610100020316600290048015610a845780601f10610a5957610100808354040283529160200191610a84565b820191906000526020600020905b815481529060010190602001808311610a6757829003601f168201915b50505050509080600f0160009054906101000a900473ffffffffffffffffffffffffffffffffffffffff16905088565b610abd86610e10565b610ac657600080fd5b610acf85610e10565b610ad857600080fd5b6000845111610ae657600080fd5b6000835111610af457600080fd5b6000825111610b0257600080fd5b6000815111610b1057600080fd5b600073ffffffffffffffffffffffffffffffffffffffff163373ffffffffffffffffffffffffffffffffffffffff161415610b4a57600080fd5b600080815480929190600101919050555060405180610100016040528060005481526020018781526020018681526020018581526020018481526020018381526020018281526020013373ffffffffffffffffffffffffffffffffffffffff168152506002600080548152602001908152602001600020600082015181600001556020820151816001016000820151816000019080519060200190610bf0929190610e89565b506020820151816001019080519060200190610c0d929190610e89565b506040820151816002019080519060200190610c2a929190610e89565b506060820151816003019080519060200190610c47929190610e89565b506080820151816004019080519060200190610c64929190610e89565b5050506040820151816006016000820151816000019080519060200190610c8c929190610e89565b506020820151816001019080519060200190610ca9929190610e89565b506040820151816002019080519060200190610cc6929190610e89565b506060820151816003019080519060200190610ce3929190610e89565b506080820151816004019080519060200190610d00929190610e89565b505050606082015181600b019080519060200190610d1f929190610e89565b50608082015181600c019080519060200190610d3c929190610e89565b5060a082015181600d019080519060200190610d59929190610e89565b5060c082015181600e019080519060200190610d76929190610e89565b5060e082015181600f0160006101000a81548173ffffffffffffffffffffffffffffffffffffffff021916908373ffffffffffffffffffffffffffffffffffffffff1602179055509050507f06018f0f94d41fbdd7502fecd95a171733bc4222a1dae2db2349a1dcb367572b60005487878787878733604051610e00989796959493929190611466565b60405180910390a1505050505050565b60008082602001515111610e275760009050610e84565b600082606001515111610e3d5760009050610e84565b600082608001515111610e535760009050610e84565b600082600001515111610e695760009050610e84565b600082604001515111610e7f5760009050610e84565b600190505b919050565b828054600181600116156101000203166002900490600052602060002090601f016020900481019282601f10610eca57805160ff1916838001178555610ef8565b82800160010185558215610ef8579182015b82811115610ef7578251825591602001919060010190610edc565b5b509050610f059190610f09565b5090565b610f2b91905b80821115610f27576000816000905550600101610f0f565b5090565b90565b600082601f830112610f3f57600080fd5b8135610f52610f4d826115e3565b6115b6565b91508082526020830160208301858383011115610f6e57600080fd5b610f798382846116e5565b50505092915050565b600082601f830112610f9357600080fd5b8135610fa6610fa18261160f565b6115b6565b91508082526020830160208301858383011115610fc257600080fd5b610fcd8382846116e5565b50505092915050565b600060a08284031215610fe857600080fd5b610ff260a06115b6565b9050600082013567ffffffffffffffff81111561100e57600080fd5b61101a84828501610f2e565b600083015250602082013567ffffffffffffffff81111561103a57600080fd5b61104684828501610f2e565b602083015250604082013567ffffffffffffffff81111561106657600080fd5b61107284828501610f2e565b604083015250606082013567ffffffffffffffff81111561109257600080fd5b61109e84828501610f2e565b606083015250608082013567ffffffffffffffff8111156110be57600080fd5b6110ca84828501610f2e565b60808301525092915050565b6000813590506110e581611738565b92915050565b60008060008060008060c0878903121561110457600080fd5b600087013567ffffffffffffffff81111561111e57600080fd5b61112a89828a01610fd6565b965050602087013567ffffffffffffffff81111561114757600080fd5b61115389828a01610fd6565b955050604087013567ffffffffffffffff81111561117057600080fd5b61117c89828a01610f82565b945050606087013567ffffffffffffffff81111561119957600080fd5b6111a589828a01610f82565b935050608087013567ffffffffffffffff8111156111c257600080fd5b6111ce89828a01610f82565b92505060a087013567ffffffffffffffff8111156111eb57600080fd5b6111f789828a01610f82565b9150509295509295509295565b60006020828403121561121657600080fd5b6000611224848285016110d6565b91505092915050565b611236816116af565b82525050565b61124581611673565b82525050565b600061125682611646565b6112608185611662565b93506112708185602086016116f4565b61127981611727565b840191505092915050565b600061128f8261163b565b6112998185611651565b93506112a98185602086016116f4565b6112b281611727565b840191505092915050565b60006112c88261163b565b6112d28185611662565b93506112e28185602086016116f4565b6112eb81611727565b840191505092915050565b600060a08301600083015184820360008601526113138282611284565b9150506020830151848203602086015261132d8282611284565b915050604083015184820360408601526113478282611284565b915050606083015184820360608601526113618282611284565b9150506080830151848203608086015261137b8282611284565b9150508091505092915050565b600060a08301600083015184820360008601526113a58282611284565b915050602083015184820360208601526113bf8282611284565b915050604083015184820360408601526113d98282611284565b915050606083015184820360608601526113f38282611284565b9150506080830151848203608086015261140d8282611284565b9150508091505092915050565b611423816116a5565b82525050565b6000602082019050818103600083015261144381846112bd565b905092915050565b6000602082019050611460600083018461141a565b92915050565b60006101008201905061147c600083018b61141a565b818103602083015261148e818a6112f6565b905081810360408301526114a281896112f6565b905081810360608301526114b6818861124b565b905081810360808301526114ca818761124b565b905081810360a08301526114de818661124b565b905081810360c08301526114f2818561124b565b905061150160e083018461122d565b9998505050505050505050565b600061010082019050611524600083018b61141a565b8181036020830152611536818a611388565b9050818103604083015261154a8189611388565b9050818103606083015261155e81886112bd565b9050818103608083015261157281876112bd565b905081810360a083015261158681866112bd565b905081810360c083015261159a81856112bd565b90506115a960e083018461123c565b9998505050505050505050565b6000604051905081810181811067ffffffffffffffff821117156115d957600080fd5b8060405250919050565b600067ffffffffffffffff8211156115fa57600080fd5b601f19601f8301169050602081019050919050565b600067ffffffffffffffff82111561162657600080fd5b601f19601f8301169050602081019050919050565b600081519050919050565b600081519050919050565b600082825260208201905092915050565b600082825260208201905092915050565b600061167e82611685565b9050919050565b600073ffffffffffffffffffffffffffffffffffffffff82169050919050565b6000819050919050565b60006116ba826116c1565b9050919050565b60006116cc826116d3565b9050919050565b60006116de82611685565b9050919050565b82818337600083830152505050565b60005b838110156117125780820151818401526020810190506116f7565b83811115611721576000848401525b50505050565b6000601f19601f8301169050919050565b611741816116a5565b811461174c57600080fd5b5056fea365627a7a72315820e2be6f2d998458360afc432d65d215d2de70ad22acda5c893fb3184aa9c79bad6c6578706572696d656e74616cf564736f6c63430005100040",
  "source": "pragma experimental ABIEncoderV2;\r\n// pragma solidity >=0.4.22 <0.9.0;\r\npragma solidity ^0.5.16;\r\n\r\ncontract Invoices {\r\n  uint public invoiceCount = 0;\r\n  string public name = \"Invoices\";\r\n  //Create id=>struct mapping\r\n  mapping(uint => Invoice) public invoices;\r\n  //Create Struct\r\n  struct Invoice {\r\n    uint _numberId;\r\n    Person _sender;\r\n    Person _receiver;\r\n    string _discount;\r\n    string _tax;\r\n    string _total;\r\n    // mapping(uint => Detail) _details;\r\n    // uint _detailsSize;\r\n    string _details;\r\n    address _author;\r\n  }\r\n\r\n  struct Person {\r\n    string _name;\r\n    string _address;\r\n    string _phone;\r\n    string _company;\r\n    string _email;\r\n  }\r\n\r\n  // struct Detail {\r\n  //   string _description;\r\n  //   string _quantity;\r\n  //   string _unitPrice;\r\n  //   string _price;\r\n  // }\r\n\r\n  //Create Event\r\n  event InvoiceUploaded (\r\n    uint _numberId,\r\n    Person _sender,\r\n    Person _receiver,\r\n    string _discount,    \r\n    string _tax,\r\n    string _total,\r\n    string _details,\r\n    address _author\r\n  );\r\n\r\n  constructor() public {\r\n  }\r\n\r\n  // function CheckDetail(Detail memory detail) private pure returns(bool){\r\n  //   if (bytes(detail._description).length <= 0)\r\n  //       return false;\r\n  //   if (bytes(detail._price).length <= 0)\r\n  //       return false;\r\n  //   if (bytes(detail._quantity).length <= 0)\r\n  //       return false;\r\n  //   if (bytes(detail._unitPrice).length <= 0)\r\n  //       return false;\r\n  //   return true;\r\n  // }\r\n\r\n  // function CheckDetailList(string memory details) internal pure returns(bool){\r\n  //   if(details.length <= 0)\r\n  //       return false;\r\n  //   // for(uint i = 0; i < details.length; i++)\r\n  //   // {\r\n  //   //     if (!CheckDetail(details[i]))\r\n  //   //         return false;\r\n  //   // }\r\n  //   return true;\r\n  // }\r\n\r\n  function CheckPerson(Person memory person) private pure returns(bool){\r\n    if (bytes(person._address).length <= 0)\r\n        return false;\r\n    if (bytes(person._company).length <= 0)\r\n        return false;\r\n    if (bytes(person._email).length <= 0)\r\n        return false;\r\n    if (bytes(person._name).length <= 0)\r\n        return false;\r\n    if (bytes(person._phone).length <= 0)\r\n        return false;\r\n    return true;\r\n  }\r\n\r\n  function uploadInvoice(Person memory sender, Person memory receiver, string memory discount,\r\n    string memory tax,\r\n    string memory total,\r\n    string memory details) public {\r\n    // Make sure the sender exists\r\n    require(CheckPerson(sender));\r\n    // Make sure receiver exists\r\n    require(CheckPerson(receiver));\r\n    require(bytes(discount).length > 0);\r\n    require(bytes(tax).length > 0);\r\n    require(bytes(total).length > 0);\r\n    // require(CheckDetailList(details));\r\n    require(bytes(details).length > 0);\r\n\r\n    // Make sure uploader address exists\r\n    require(msg.sender != address(0));\r\n\r\n    // Increment video id\r\n    invoiceCount++;\r\n\r\n    // Add video to the contract\r\n    invoices[invoiceCount] = Invoice(invoiceCount,\r\n     sender,\r\n     receiver,\r\n     discount,\r\n     tax,\r\n     total,\r\n     details, msg.sender);\r\n    // invoices[invoiceCount] = temp;\r\n\r\n    // Trigger an event\r\n    emit InvoiceUploaded(invoiceCount,\r\n     sender,\r\n     receiver,\r\n     discount,\r\n     tax,\r\n     total,\r\n     details, msg.sender);\r\n  }\r\n}",
  "sourcePath": "D:/Code/Blockchain/DoAn1/InvoiceStorageSystem/invoices-storage-system/src/contracts/Invoices.sol",
  "compiler": {
    "name": "solc",
    "version": "0.5.16+commit.9c3226ce.Emscripten.clang"
  },
  "schemaVersion": "3.4.1",
  "updatedAt": "2021-06-22T03:01:23.888Z",
  "networkType": "ethereum",
  "devdoc": {
    "methods": {}
  },
  "userdoc": {
    "methods": {}
  }
}